{
  "_format": "hh-sol-artifact-1",
  "contractName": "ICE64",
  "sourceName": "contracts/ICE64.sol",
  "abi": [
    {
      "inputs": [
        {
          "internalType": "address",
          "name": "owner",
          "type": "address"
        },
        {
          "internalType": "address",
          "name": "royalties",
          "type": "address"
        },
        {
          "internalType": "contract IERC721",
          "name": "roots_",
          "type": "address"
        }
      ],
      "stateMutability": "nonpayable",
      "type": "constructor"
    },
    {
      "inputs": [],
      "name": "AlreadyOwnerOfEdition",
      "type": "error"
    },
    {
      "inputs": [],
      "name": "EditionForOriginalStillReserved",
      "type": "error"
    },
    {
      "inputs": [],
      "name": "IncorrectEthAmount",
      "type": "error"
    },
    {
      "inputs": [],
      "name": "InvalidToken",
      "type": "error"
    },
    {
      "inputs": [],
      "name": "NoMetadataYet",
      "type": "error"
    },
    {
      "inputs": [],
      "name": "NotOwner",
      "type": "error"
    },
    {
      "inputs": [],
      "name": "NotOwnerOfRootsPhoto",
      "type": "error"
    },
    {
      "inputs": [],
      "name": "PaymentFailed",
      "type": "error"
    },
    {
      "inputs": [],
      "name": "RootsPhotoAlreadyUsedClaim",
      "type": "error"
    },
    {
      "inputs": [],
      "name": "SoldOut",
      "type": "error"
    },
    {
      "anonymous": false,
      "inputs": [
        {
          "indexed": true,
          "internalType": "address",
          "name": "owner",
          "type": "address"
        },
        {
          "indexed": true,
          "internalType": "address",
          "name": "operator",
          "type": "address"
        },
        {
          "indexed": false,
          "internalType": "bool",
          "name": "approved",
          "type": "bool"
        }
      ],
      "name": "ApprovalForAll",
      "type": "event"
    },
    {
      "anonymous": false,
      "inputs": [],
      "name": "ICE64Emerges",
      "type": "event"
    },
    {
      "anonymous": false,
      "inputs": [
        {
          "indexed": true,
          "internalType": "address",
          "name": "user",
          "type": "address"
        },
        {
          "indexed": true,
          "internalType": "address",
          "name": "newOwner",
          "type": "address"
        }
      ],
      "name": "OwnerUpdated",
      "type": "event"
    },
    {
      "anonymous": false,
      "inputs": [
        {
          "indexed": true,
          "internalType": "address",
          "name": "operator",
          "type": "address"
        },
        {
          "indexed": true,
          "internalType": "address",
          "name": "from",
          "type": "address"
        },
        {
          "indexed": true,
          "internalType": "address",
          "name": "to",
          "type": "address"
        },
        {
          "indexed": false,
          "internalType": "uint256[]",
          "name": "ids",
          "type": "uint256[]"
        },
        {
          "indexed": false,
          "internalType": "uint256[]",
          "name": "amounts",
          "type": "uint256[]"
        }
      ],
      "name": "TransferBatch",
      "type": "event"
    },
    {
      "anonymous": false,
      "inputs": [
        {
          "indexed": true,
          "internalType": "address",
          "name": "operator",
          "type": "address"
        },
        {
          "indexed": true,
          "internalType": "address",
          "name": "from",
          "type": "address"
        },
        {
          "indexed": true,
          "internalType": "address",
          "name": "to",
          "type": "address"
        },
        {
          "indexed": false,
          "internalType": "uint256",
          "name": "id",
          "type": "uint256"
        },
        {
          "indexed": false,
          "internalType": "uint256",
          "name": "amount",
          "type": "uint256"
        }
      ],
      "name": "TransferSingle",
      "type": "event"
    },
    {
      "anonymous": false,
      "inputs": [
        {
          "indexed": false,
          "internalType": "string",
          "name": "value",
          "type": "string"
        },
        {
          "indexed": true,
          "internalType": "uint256",
          "name": "id",
          "type": "uint256"
        }
      ],
      "name": "URI",
      "type": "event"
    },
    {
      "inputs": [
        {
          "internalType": "address",
          "name": "",
          "type": "address"
        },
        {
          "internalType": "uint256",
          "name": "",
          "type": "uint256"
        }
      ],
      "name": "balanceOf",
      "outputs": [
        {
          "internalType": "uint256",
          "name": "",
          "type": "uint256"
        }
      ],
      "stateMutability": "view",
      "type": "function"
    },
    {
      "inputs": [
        {
          "internalType": "address[]",
          "name": "owners",
          "type": "address[]"
        },
        {
          "internalType": "uint256[]",
          "name": "ids",
          "type": "uint256[]"
        }
      ],
      "name": "balanceOfBatch",
      "outputs": [
        {
          "internalType": "uint256[]",
          "name": "balances",
          "type": "uint256[]"
        }
      ],
      "stateMutability": "view",
      "type": "function"
    },
    {
      "inputs": [
        {
          "internalType": "uint256",
          "name": "id",
          "type": "uint256"
        }
      ],
      "name": "burn",
      "outputs": [],
      "stateMutability": "nonpayable",
      "type": "function"
    },
    {
      "inputs": [
        {
          "internalType": "uint256",
          "name": "id",
          "type": "uint256"
        },
        {
          "internalType": "uint256",
          "name": "rootsId",
          "type": "uint256"
        }
      ],
      "name": "claimEditionAsRootsHolder",
      "outputs": [],
      "stateMutability": "nonpayable",
      "type": "function"
    },
    {
      "inputs": [
        {
          "internalType": "uint256",
          "name": "id",
          "type": "uint256"
        }
      ],
      "name": "getEditionTokenId",
      "outputs": [
        {
          "internalType": "uint256",
          "name": "",
          "type": "uint256"
        }
      ],
      "stateMutability": "pure",
      "type": "function"
    },
    {
      "inputs": [
        {
          "internalType": "uint256",
          "name": "id",
          "type": "uint256"
        }
      ],
      "name": "getEditionsSold",
      "outputs": [
        {
          "internalType": "uint256",
          "name": "",
          "type": "uint256"
        }
      ],
      "stateMutability": "view",
      "type": "function"
    },
    {
      "inputs": [],
      "name": "getMaxEditions",
      "outputs": [
        {
          "internalType": "uint256",
          "name": "",
          "type": "uint256"
        }
      ],
      "stateMutability": "pure",
      "type": "function"
    },
    {
      "inputs": [
        {
          "internalType": "uint256",
          "name": "id",
          "type": "uint256"
        }
      ],
      "name": "getOriginalSold",
      "outputs": [
        {
          "internalType": "bool",
          "name": "",
          "type": "bool"
        }
      ],
      "stateMutability": "view",
      "type": "function"
    },
    {
      "inputs": [
        {
          "internalType": "uint256",
          "name": "editionId",
          "type": "uint256"
        }
      ],
      "name": "getOriginalTokenId",
      "outputs": [
        {
          "internalType": "uint256",
          "name": "",
          "type": "uint256"
        }
      ],
      "stateMutability": "pure",
      "type": "function"
    },
    {
      "inputs": [
        {
          "internalType": "uint256",
          "name": "rootsId",
          "type": "uint256"
        }
      ],
      "name": "hasEditionBeenClaimedForRootsPhoto",
      "outputs": [
        {
          "internalType": "bool",
          "name": "",
          "type": "bool"
        }
      ],
      "stateMutability": "view",
      "type": "function"
    },
    {
      "inputs": [
        {
          "internalType": "address",
          "name": "",
          "type": "address"
        },
        {
          "internalType": "address",
          "name": "",
          "type": "address"
        }
      ],
      "name": "isApprovedForAll",
      "outputs": [
        {
          "internalType": "bool",
          "name": "",
          "type": "bool"
        }
      ],
      "stateMutability": "view",
      "type": "function"
    },
    {
      "inputs": [
        {
          "internalType": "uint256",
          "name": "id",
          "type": "uint256"
        }
      ],
      "name": "isEdition",
      "outputs": [
        {
          "internalType": "bool",
          "name": "",
          "type": "bool"
        }
      ],
      "stateMutability": "pure",
      "type": "function"
    },
    {
      "inputs": [],
      "name": "metadata",
      "outputs": [
        {
          "internalType": "contract IICE64Renderer",
          "name": "",
          "type": "address"
        }
      ],
      "stateMutability": "view",
      "type": "function"
    },
    {
      "inputs": [],
      "name": "owner",
      "outputs": [
        {
          "internalType": "address",
          "name": "",
          "type": "address"
        }
      ],
      "stateMutability": "view",
      "type": "function"
    },
    {
      "inputs": [],
      "name": "priceEdition",
      "outputs": [
        {
          "internalType": "uint256",
          "name": "",
          "type": "uint256"
        }
      ],
      "stateMutability": "view",
      "type": "function"
    },
    {
      "inputs": [],
      "name": "priceOriginal",
      "outputs": [
        {
          "internalType": "uint256",
          "name": "",
          "type": "uint256"
        }
      ],
      "stateMutability": "view",
      "type": "function"
    },
    {
      "inputs": [
        {
          "internalType": "uint256",
          "name": "id",
          "type": "uint256"
        }
      ],
      "name": "purchaseEdition",
      "outputs": [],
      "stateMutability": "payable",
      "type": "function"
    },
    {
      "inputs": [
        {
          "internalType": "uint256",
          "name": "id",
          "type": "uint256"
        }
      ],
      "name": "purchaseOriginal",
      "outputs": [],
      "stateMutability": "payable",
      "type": "function"
    },
    {
      "inputs": [],
      "name": "roots",
      "outputs": [
        {
          "internalType": "contract IERC721",
          "name": "",
          "type": "address"
        }
      ],
      "stateMutability": "view",
      "type": "function"
    },
    {
      "inputs": [
        {
          "internalType": "uint256",
          "name": "",
          "type": "uint256"
        },
        {
          "internalType": "uint256",
          "name": "salePrice",
          "type": "uint256"
        }
      ],
      "name": "royaltyInfo",
      "outputs": [
        {
          "internalType": "address",
          "name": "receiver",
          "type": "address"
        },
        {
          "internalType": "uint256",
          "name": "royaltyAmount",
          "type": "uint256"
        }
      ],
      "stateMutability": "view",
      "type": "function"
    },
    {
      "inputs": [
        {
          "internalType": "address",
          "name": "from",
          "type": "address"
        },
        {
          "internalType": "address",
          "name": "to",
          "type": "address"
        },
        {
          "internalType": "uint256[]",
          "name": "ids",
          "type": "uint256[]"
        },
        {
          "internalType": "uint256[]",
          "name": "amounts",
          "type": "uint256[]"
        },
        {
          "internalType": "bytes",
          "name": "data",
          "type": "bytes"
        }
      ],
      "name": "safeBatchTransferFrom",
      "outputs": [],
      "stateMutability": "nonpayable",
      "type": "function"
    },
    {
      "inputs": [
        {
          "internalType": "address",
          "name": "from",
          "type": "address"
        },
        {
          "internalType": "address",
          "name": "to",
          "type": "address"
        },
        {
          "internalType": "uint256",
          "name": "id",
          "type": "uint256"
        },
        {
          "internalType": "uint256",
          "name": "amount",
          "type": "uint256"
        },
        {
          "internalType": "bytes",
          "name": "data",
          "type": "bytes"
        }
      ],
      "name": "safeTransferFrom",
      "outputs": [],
      "stateMutability": "nonpayable",
      "type": "function"
    },
    {
      "inputs": [
        {
          "internalType": "address",
          "name": "operator",
          "type": "address"
        },
        {
          "internalType": "bool",
          "name": "approved",
          "type": "bool"
        }
      ],
      "name": "setApprovalForAll",
      "outputs": [],
      "stateMutability": "nonpayable",
      "type": "function"
    },
    {
      "inputs": [
        {
          "internalType": "contract IICE64Renderer",
          "name": "metadataAddr",
          "type": "address"
        }
      ],
      "name": "setMetadata",
      "outputs": [],
      "stateMutability": "nonpayable",
      "type": "function"
    },
    {
      "inputs": [
        {
          "internalType": "address",
          "name": "newOwner",
          "type": "address"
        }
      ],
      "name": "setOwner",
      "outputs": [],
      "stateMutability": "nonpayable",
      "type": "function"
    },
    {
      "inputs": [
        {
          "internalType": "address",
          "name": "receiver",
          "type": "address"
        },
        {
          "internalType": "uint256",
          "name": "amount",
          "type": "uint256"
        }
      ],
      "name": "setRoyaltyInfo",
      "outputs": [],
      "stateMutability": "nonpayable",
      "type": "function"
    },
    {
      "inputs": [
        {
          "internalType": "bytes4",
          "name": "interfaceId",
          "type": "bytes4"
        }
      ],
      "name": "supportsInterface",
      "outputs": [
        {
          "internalType": "bool",
          "name": "",
          "type": "bool"
        }
      ],
      "stateMutability": "view",
      "type": "function"
    },
    {
      "inputs": [
        {
          "internalType": "uint256",
          "name": "id",
          "type": "uint256"
        }
      ],
      "name": "uri",
      "outputs": [
        {
          "internalType": "string",
          "name": "",
          "type": "string"
        }
      ],
      "stateMutability": "view",
      "type": "function"
    },
    {
      "inputs": [],
      "name": "withdrawBalance",
      "outputs": [],
      "stateMutability": "nonpayable",
      "type": "function"
    },
    {
      "inputs": [
        {
          "internalType": "contract IERC20",
          "name": "tokenAddress",
          "type": "address"
        }
      ],
      "name": "withdrawToken",
      "outputs": [],
      "stateMutability": "nonpayable",
      "type": "function"
    }
  ],
  "bytecode": "0x60806040523480156200001157600080fd5b506040516200206b3803806200206b83398101604081905262000034916200015f565b600280546001600160a01b0319166001600160a01b0385169081179091556040518491906000907f8292fce18fa69edf4db7b94ea2e58241df0ae57f97e0a6c9b29067028bf92d76908290a3506040517faa0fbc569a3ac1119963e93aa7ce60ec6703ac5382e6b588a2a2e617bed9e9ed90600090a1600480546001600160a01b0319166001600160a01b038316179055600554620000d7906000600162000120565b60055550604080518082019091526001600160a01b0391909116808252610280602090920191909152600780546001600160b81b031916909117600560a71b17905550620001b3565b600081156200013657506001821b83176200013f565b506001821b1983165b9392505050565b6001600160a01b03811681146200015c57600080fd5b50565b6000806000606084860312156200017557600080fd5b8351620001828162000146565b6020850151909350620001958162000146565b6040850151909250620001a88162000146565b809150509250925092565b611ea880620001c36000396000f3fe6080604052600436106101cb5760003560e01c806369dabb7c116100f7578063a22cb46511610095578063e2e784d511610064578063e2e784d514610574578063e985e9c514610594578063f242432a146105cf578063f3cb8385146105ef57600080fd5b8063a22cb465146104f4578063afd77cb614610514578063dafa84f914610534578063df7624631461055457600080fd5b80638d345150116100d15780638d345150146104845780638da5cb5b146104a0578063955ce6ca146104c05780639effd22f146104d457600080fd5b806369dabb7c1461042857806388899eaa14610449578063894760691461046457600080fd5b80632eb2c2d61161016f5780634e1273f41161013e5780634e1273f41461039457806358e83e5b146103c15780635fd8c710146103e15780636664938b146103f657600080fd5b80632eb2c2d6146102fc578063392f37e91461031c578063393fe1cd1461035457806342966c681461037457600080fd5b80630e89341c116101ab5780630e89341c1461025d57806313af40351461028a578063283ea676146102aa5780632a55205a146102bd57600080fd5b80629a19ba146101d0578062fdd58e146101e557806301ffc9a71461022d575b600080fd5b6101e36101de3660046116c3565b61060f565b005b3480156101f157600080fd5b5061021a6102003660046116f1565b600060208181529281526040808220909352908152205481565b6040519081526020015b60405180910390f35b34801561023957600080fd5b5061024d610248366004611733565b61073e565b6040519015158152602001610224565b34801561026957600080fd5b5061027d6102783660046116c3565b610769565b60405161022491906117a8565b34801561029657600080fd5b506101e36102a53660046117bb565b610806565b6101e36102b83660046116c3565b610885565b3480156102c957600080fd5b506102dd6102d83660046117d8565b6108e7565b604080516001600160a01b039093168352602083019190915201610224565b34801561030857600080fd5b506101e3610317366004611888565b610925565b34801561032857600080fd5b5060035461033c906001600160a01b031681565b6040516001600160a01b039091168152602001610224565b34801561036057600080fd5b5060045461033c906001600160a01b031681565b34801561038057600080fd5b506101e361038f3660046116c3565b610bc8565b3480156103a057600080fd5b506103b46103af366004611947565b610c0f565b60405161022491906119b3565b3480156103cd57600080fd5b5061021a6103dc3660046116c3565b610d44565b3480156103ed57600080fd5b506101e3610d51565b34801561040257600080fd5b5061024d6104113660046116c3565b60009081526006602052604090205460ff16151590565b34801561043457600080fd5b5061024d6104433660046116c3565b60641090565b34801561045557600080fd5b5061021a668e1bc9bf04000081565b34801561047057600080fd5b506101e361047f3660046117bb565b610dc5565b34801561049057600080fd5b5061021a670470de4df820000081565b3480156104ac57600080fd5b5060025461033c906001600160a01b031681565b3480156104cc57600080fd5b50602061021a565b3480156104e057600080fd5b5061021a6104ef3660046116c3565b610eaf565b34801561050057600080fd5b506101e361050f366004611a05565b610ebc565b34801561052057600080fd5b506101e361052f3660046117d8565b610f28565b34801561054057600080fd5b5061021a61054f3660046116c3565b611031565b34801561056057600080fd5b5061024d61056f3660046116c3565b61105e565b34801561058057600080fd5b506101e361058f3660046116f1565b611071565b3480156105a057600080fd5b5061024d6105af366004611a3e565b600160209081526000928352604080842090915290825290205460ff1681565b3480156105db57600080fd5b506101e36105ea366004611a6c565b6110e5565b3480156105fb57600080fd5b506101e361060a3660046117bb565b6112df565b8080158061061d5750601081115b1561063b5760405163c1ab6dc160e01b815260040160405180910390fd5b670470de4df820000080341461066457604051638b6ebb4d60e01b815260040160405180910390fd5b60008381526006602052604090205460ff168015610695576040516352df9fe560e01b815260040160405180910390fd5b60006106a085610d44565b33600090815260208181526040808320848452909152902054909150156106f1576106dd338660016040518060200160405280600081525061132b565b6106ec85600160006001611473565b610737565b61070d338660016040518060200160405280600081525061132b565b610729338260016040518060200160405280600081525061132b565b610737856001806001611473565b5050505050565b600063152a902d60e11b6001600160e01b0319831614806107635750610763826114c3565b92915050565b6003546060906001600160a01b031661079557604051635e87bc0f60e11b815260040160405180910390fd5b60035460405163c87b56dd60e01b8152600481018490526001600160a01b039091169063c87b56dd90602401600060405180830381865afa1580156107de573d6000803e3d6000fd5b505050506040513d6000823e601f3d908101601f191682016040526107639190810190611afe565b6002546001600160a01b031633146108395760405162461bcd60e51b815260040161083090611bab565b60405180910390fd5b600280546001600160a01b0319166001600160a01b03831690811790915560405133907f8292fce18fa69edf4db7b94ea2e58241df0ae57f97e0a6c9b29067028bf92d7690600090a350565b808015806108935750601081115b156108b15760405163c1ab6dc160e01b815260040160405180910390fd5b668e1bc9bf0400008034146108d957604051638b6ebb4d60e01b815260040160405180910390fd5b6108e283611511565b505050565b6007546001600160a01b038116906000906127109061091290600160a01b900462ffffff1685611be7565b61091c9190611c06565b90509250929050565b8483146109665760405162461bcd60e51b815260206004820152600f60248201526e0988a9c8ea890be9a92a69a82a8869608b1b6044820152606401610830565b336001600160a01b03891614806109a057506001600160a01b038816600090815260016020908152604080832033845290915290205460ff165b6109dd5760405162461bcd60e51b815260206004820152600e60248201526d1393d517d055551213d49256915160921b6044820152606401610830565b60008060005b87811015610a98578888828181106109fd576109fd611c28565b905060200201359250868682818110610a1857610a18611c28565b6001600160a01b038e1660009081526020818152604080832089845282528220805493909102949094013595508593925090610a55908490611c3e565b90915550506001600160a01b038a1660009081526020818152604080832086845290915281208054849290610a8b908490611c55565b90915550506001016109e3565b50886001600160a01b03168a6001600160a01b0316336001600160a01b03167f4a39dc06d4c0dbc64b70af90fd698a233a518aa5d07e595d983b8c0526c8f7fb8b8b8b8b604051610aec9493929190611ca3565b60405180910390a46001600160a01b0389163b15610b935760405163bc197c8160e01b808252906001600160a01b038b169063bc197c8190610b409033908f908e908e908e908e908e908e90600401611cf3565b6020604051808303816000875af1158015610b5f573d6000803e3d6000fd5b505050506040513d601f19601f82011682018060405250810190610b839190611d57565b6001600160e01b03191614610ba0565b6001600160a01b03891615155b610bbc5760405162461bcd60e51b815260040161083090611d74565b50505050505050505050565b336000908152602081815260408083208484529091528120549003610c00576040516330cd747160e01b815260040160405180910390fd5b610c0c338260016115fa565b50565b6060838214610c525760405162461bcd60e51b815260206004820152600f60248201526e0988a9c8ea890be9a92a69a82a8869608b1b6044820152606401610830565b8367ffffffffffffffff811115610c6b57610c6b611ae8565b604051908082528060200260200182016040528015610c94578160200160208202803683370190505b50905060005b84811015610d3b57600080878784818110610cb757610cb7611c28565b9050602002016020810190610ccc91906117bb565b6001600160a01b03166001600160a01b031681526020019081526020016000206000858584818110610d0057610d00611c28565b90506020020135815260200190815260200160002054828281518110610d2857610d28611c28565b6020908102919091010152600101610c9a565b50949350505050565b6000610763606483611c55565b6002546040516000916001600160a01b03169047908381818185875af1925050503d8060008114610d9e576040519150601f19603f3d011682016040523d82523d6000602084013e610da3565b606091505b5050905080610c0c576040516307a4ced160e51b815260040160405180910390fd5b6002546040516370a0823160e01b81523060048201526001600160a01b038381169263a9059cbb9291169083906370a0823190602401602060405180830381865afa158015610e18573d6000803e3d6000fd5b505050506040513d601f19601f82011682018060405250810190610e3c9190611d9e565b6040516001600160e01b031960e085901b1681526001600160a01b03909216600483015260248201526044016020604051808303816000875af1158015610e87573d6000803e3d6000fd5b505050506040513d601f19601f82011682018060405250810190610eab9190611db7565b5050565b6000610763606483611c3e565b3360008181526001602090815260408083206001600160a01b03871680855290835292819020805460ff191686151590811790915590519081529192917f17307eab39ab6107e8899845ad3d59bd9653f200f220920489ca2b5937696c31910160405180910390a35050565b81801580610f365750601081115b15610f545760405163c1ab6dc160e01b815260040160405180910390fd5b600480546040516331a9108f60e11b815291820184905233916001600160a01b0390911690636352211e90602401602060405180830381865afa158015610f9f573d6000803e3d6000fd5b505050506040513d601f19601f82011682018060405250810190610fc39190611dd4565b6001600160a01b031614610fea5760405163b24444db60e01b815260040160405180910390fd5b600554821c60019081160361101257604051632a06c23360e21b815260040160405180910390fd5b61101b83611511565b61102960055483600161167e565b600555505050565b600081815260066020526040812054819060ff80821691600881901c82169160109190911c161515610d3b565b600554600090821c600190811614610763565b6002546001600160a01b0316331461109b5760405162461bcd60e51b815260040161083090611bab565b604080518082019091526001600160a01b0390921680835262ffffff909116602090920182905260078054600160a01b9093026001600160b81b0319909316909117919091179055565b336001600160a01b038716148061111f57506001600160a01b038616600090815260016020908152604080832033845290915290205460ff165b61115c5760405162461bcd60e51b815260206004820152600e60248201526d1393d517d055551213d49256915160921b6044820152606401610830565b6001600160a01b0386166000908152602081815260408083208784529091528120805485929061118d908490611c3e565b90915550506001600160a01b038516600090815260208181526040808320878452909152812080548592906111c3908490611c55565b909155505060408051858152602081018590526001600160a01b03808816929089169133917fc3d58168c5ae7397731d063d5bbf3d657854427343f4c083240f7aacaa2d0f62910160405180910390a46001600160a01b0385163b156112ae5760405163f23a6e6160e01b808252906001600160a01b0387169063f23a6e619061125b9033908b908a908a908a908a90600401611df1565b6020604051808303816000875af115801561127a573d6000803e3d6000fd5b505050506040513d601f19601f8201168201806040525081019061129e9190611d57565b6001600160e01b031916146112bb565b6001600160a01b03851615155b6112d75760405162461bcd60e51b815260040161083090611d74565b505050505050565b6002546001600160a01b031633146113095760405162461bcd60e51b815260040161083090611bab565b600380546001600160a01b0319166001600160a01b0392909216919091179055565b6001600160a01b0384166000908152602081815260408083208684529091528120805484929061135c908490611c55565b909155505060408051848152602081018490526001600160a01b0386169160009133917fc3d58168c5ae7397731d063d5bbf3d657854427343f4c083240f7aacaa2d0f62910160405180910390a46001600160a01b0384163b156114445760405163f23a6e6160e01b808252906001600160a01b0386169063f23a6e61906113f1903390600090899089908990600401611e38565b6020604051808303816000875af1158015611410573d6000803e3d6000fd5b505050506040513d601f19601f820116820180604052508101906114349190611d57565b6001600160e01b03191614611451565b6001600160a01b03841615155b61146d5760405162461bcd60e51b815260040161083090611d74565b50505050565b60008481526006602052604090205460ff8082169160081c166114a96114998684611c55565b6114a38684611c55565b856116a2565b600096875260066020526040909620959095555050505050565b60006301ffc9a760e01b6001600160e01b0319831614806114f45750636cdb3d1360e11b6001600160e01b03198316145b806107635750506001600160e01b0319166303a24d0760e21b1490565b600061151c82610d44565b60008381526006602052604081205491925060ff600883901c81169260101c16151590816115555761155060016020611c3e565b611558565b60205b9050808303611599578115611580576040516352df9fe560e01b815260040160405180910390fd5b60405163bc66069360e01b815260040160405180910390fd5b33600090815260208181526040808320878452909152902054156115d05760405163b7d406bb60e01b815260040160405180910390fd5b6115ec338560016040518060200160405280600081525061132b565b610737856000600185611473565b6001600160a01b0383166000908152602081815260408083208584529091528120805483929061162b908490611c3e565b909155505060408051838152602081018390526000916001600160a01b0386169133917fc3d58168c5ae7397731d063d5bbf3d657854427343f4c083240f7aacaa2d0f62910160405180910390a4505050565b6000811561169257506001821b831761169b565b506001821b1983165b9392505050565b600882901b8317816116b457806116bb565b8062010000175b949350505050565b6000602082840312156116d557600080fd5b5035919050565b6001600160a01b0381168114610c0c57600080fd5b6000806040838503121561170457600080fd5b823561170f816116dc565b946020939093013593505050565b6001600160e01b031981168114610c0c57600080fd5b60006020828403121561174557600080fd5b813561169b8161171d565b60005b8381101561176b578181015183820152602001611753565b8381111561146d5750506000910152565b60008151808452611794816020860160208601611750565b601f01601f19169290920160200192915050565b60208152600061169b602083018461177c565b6000602082840312156117cd57600080fd5b813561169b816116dc565b600080604083850312156117eb57600080fd5b50508035926020909101359150565b60008083601f84011261180c57600080fd5b50813567ffffffffffffffff81111561182457600080fd5b6020830191508360208260051b850101111561183f57600080fd5b9250929050565b60008083601f84011261185857600080fd5b50813567ffffffffffffffff81111561187057600080fd5b60208301915083602082850101111561183f57600080fd5b60008060008060008060008060a0898b0312156118a457600080fd5b88356118af816116dc565b975060208901356118bf816116dc565b9650604089013567ffffffffffffffff808211156118dc57600080fd5b6118e88c838d016117fa565b909850965060608b013591508082111561190157600080fd5b61190d8c838d016117fa565b909650945060808b013591508082111561192657600080fd5b506119338b828c01611846565b999c989b5096995094979396929594505050565b6000806000806040858703121561195d57600080fd5b843567ffffffffffffffff8082111561197557600080fd5b611981888389016117fa565b9096509450602087013591508082111561199a57600080fd5b506119a7878288016117fa565b95989497509550505050565b6020808252825182820181905260009190848201906040850190845b818110156119eb578351835292840192918401916001016119cf565b50909695505050505050565b8015158114610c0c57600080fd5b60008060408385031215611a1857600080fd5b8235611a23816116dc565b91506020830135611a33816119f7565b809150509250929050565b60008060408385031215611a5157600080fd5b8235611a5c816116dc565b91506020830135611a33816116dc565b60008060008060008060a08789031215611a8557600080fd5b8635611a90816116dc565b95506020870135611aa0816116dc565b94506040870135935060608701359250608087013567ffffffffffffffff811115611aca57600080fd5b611ad689828a01611846565b979a9699509497509295939492505050565b634e487b7160e01b600052604160045260246000fd5b600060208284031215611b1057600080fd5b815167ffffffffffffffff80821115611b2857600080fd5b818401915084601f830112611b3c57600080fd5b815181811115611b4e57611b4e611ae8565b604051601f8201601f19908116603f01168101908382118183101715611b7657611b76611ae8565b81604052828152876020848701011115611b8f57600080fd5b611ba0836020830160208801611750565b979650505050505050565b6020808252600c908201526b15539055551213d49256915160a21b604082015260600190565b634e487b7160e01b600052601160045260246000fd5b6000816000190483118215151615611c0157611c01611bd1565b500290565b600082611c2357634e487b7160e01b600052601260045260246000fd5b500490565b634e487b7160e01b600052603260045260246000fd5b600082821015611c5057611c50611bd1565b500390565b60008219821115611c6857611c68611bd1565b500190565b81835260006001600160fb1b03831115611c8657600080fd5b8260051b8083602087013760009401602001938452509192915050565b604081526000611cb7604083018688611c6d565b8281036020840152611ba0818587611c6d565b81835281816020850137506000828201602090810191909152601f909101601f19169091010190565b6001600160a01b0389811682528816602082015260a060408201819052600090611d20908301888a611c6d565b8281036060840152611d33818789611c6d565b90508281036080840152611d48818587611cca565b9b9a5050505050505050505050565b600060208284031215611d6957600080fd5b815161169b8161171d565b60208082526010908201526f155394d0519157d49150d2541251539560821b604082015260600190565b600060208284031215611db057600080fd5b5051919050565b600060208284031215611dc957600080fd5b815161169b816119f7565b600060208284031215611de657600080fd5b815161169b816116dc565b6001600160a01b03878116825286166020820152604081018590526060810184905260a060808201819052600090611e2c9083018486611cca565b98975050505050505050565b6001600160a01b03868116825285166020820152604081018490526060810183905260a060808201819052600090611ba09083018461177c56fea2646970667358221220e84fc05eb4a32fd47a9338fd986c9691bde43454e9c9b95f02c801dae5c99eec64736f6c634300080e0033",
  "linkReferences": {},
  "deployedLinkReferences": {}
}