{
  "_format": "hh-sol-artifact-1",
  "contractName": "ICE64",
  "sourceName": "contracts/ICE64.sol",
  "abi": [
    {
      "inputs": [
        {
          "internalType": "address",
          "name": "owner",
          "type": "address"
        },
        {
          "internalType": "address",
          "name": "royalties",
          "type": "address"
        },
        {
          "internalType": "string",
          "name": "originalsBaseURI_",
          "type": "string"
        },
        {
          "internalType": "contract IERC721",
          "name": "roots_",
          "type": "address"
        }
      ],
      "stateMutability": "nonpayable",
      "type": "constructor"
    },
    {
      "inputs": [],
      "name": "AlreadyOwnerOfEdition",
      "type": "error"
    },
    {
      "inputs": [],
      "name": "EditionForOriginalHolderStillReserved",
      "type": "error"
    },
    {
      "inputs": [],
      "name": "IncorrectEthAmount",
      "type": "error"
    },
    {
      "inputs": [
        {
          "internalType": "uint256",
          "name": "_size",
          "type": "uint256"
        },
        {
          "internalType": "uint256",
          "name": "_start",
          "type": "uint256"
        },
        {
          "internalType": "uint256",
          "name": "_end",
          "type": "uint256"
        }
      ],
      "name": "InvalidCodeAtRange",
      "type": "error"
    },
    {
      "inputs": [],
      "name": "InvalidPhotoData",
      "type": "error"
    },
    {
      "inputs": [],
      "name": "InvalidToken",
      "type": "error"
    },
    {
      "inputs": [],
      "name": "NoMetadataYet",
      "type": "error"
    },
    {
      "inputs": [],
      "name": "NotOwner",
      "type": "error"
    },
    {
      "inputs": [],
      "name": "NotOwnerOfOriginal",
      "type": "error"
    },
    {
      "inputs": [],
      "name": "NotOwnerOfRootsPhoto",
      "type": "error"
    },
    {
      "inputs": [],
      "name": "PaymentFailed",
      "type": "error"
    },
    {
      "inputs": [],
      "name": "ReservedEditionAlreadyClaimed",
      "type": "error"
    },
    {
      "inputs": [],
      "name": "RootsPhotoAlreadyUsedClaim",
      "type": "error"
    },
    {
      "inputs": [],
      "name": "SaleNotActive",
      "type": "error"
    },
    {
      "inputs": [],
      "name": "SoldOut",
      "type": "error"
    },
    {
      "inputs": [],
      "name": "WriteError",
      "type": "error"
    },
    {
      "anonymous": false,
      "inputs": [
        {
          "indexed": true,
          "internalType": "address",
          "name": "owner",
          "type": "address"
        },
        {
          "indexed": true,
          "internalType": "address",
          "name": "operator",
          "type": "address"
        },
        {
          "indexed": false,
          "internalType": "bool",
          "name": "approved",
          "type": "bool"
        }
      ],
      "name": "ApprovalForAll",
      "type": "event"
    },
    {
      "anonymous": false,
      "inputs": [
        {
          "indexed": true,
          "internalType": "address",
          "name": "user",
          "type": "address"
        },
        {
          "indexed": true,
          "internalType": "address",
          "name": "newOwner",
          "type": "address"
        }
      ],
      "name": "OwnerUpdated",
      "type": "event"
    },
    {
      "anonymous": false,
      "inputs": [
        {
          "indexed": true,
          "internalType": "address",
          "name": "operator",
          "type": "address"
        },
        {
          "indexed": true,
          "internalType": "address",
          "name": "from",
          "type": "address"
        },
        {
          "indexed": true,
          "internalType": "address",
          "name": "to",
          "type": "address"
        },
        {
          "indexed": false,
          "internalType": "uint256[]",
          "name": "ids",
          "type": "uint256[]"
        },
        {
          "indexed": false,
          "internalType": "uint256[]",
          "name": "amounts",
          "type": "uint256[]"
        }
      ],
      "name": "TransferBatch",
      "type": "event"
    },
    {
      "anonymous": false,
      "inputs": [
        {
          "indexed": true,
          "internalType": "address",
          "name": "operator",
          "type": "address"
        },
        {
          "indexed": true,
          "internalType": "address",
          "name": "from",
          "type": "address"
        },
        {
          "indexed": true,
          "internalType": "address",
          "name": "to",
          "type": "address"
        },
        {
          "indexed": false,
          "internalType": "uint256",
          "name": "id",
          "type": "uint256"
        },
        {
          "indexed": false,
          "internalType": "uint256",
          "name": "amount",
          "type": "uint256"
        }
      ],
      "name": "TransferSingle",
      "type": "event"
    },
    {
      "anonymous": false,
      "inputs": [
        {
          "indexed": false,
          "internalType": "string",
          "name": "value",
          "type": "string"
        },
        {
          "indexed": true,
          "internalType": "uint256",
          "name": "id",
          "type": "uint256"
        }
      ],
      "name": "URI",
      "type": "event"
    },
    {
      "inputs": [
        {
          "internalType": "address",
          "name": "",
          "type": "address"
        },
        {
          "internalType": "uint256",
          "name": "",
          "type": "uint256"
        }
      ],
      "name": "balanceOf",
      "outputs": [
        {
          "internalType": "uint256",
          "name": "",
          "type": "uint256"
        }
      ],
      "stateMutability": "view",
      "type": "function"
    },
    {
      "inputs": [
        {
          "internalType": "address[]",
          "name": "owners",
          "type": "address[]"
        },
        {
          "internalType": "uint256[]",
          "name": "ids",
          "type": "uint256[]"
        }
      ],
      "name": "balanceOfBatch",
      "outputs": [
        {
          "internalType": "uint256[]",
          "name": "balances",
          "type": "uint256[]"
        }
      ],
      "stateMutability": "view",
      "type": "function"
    },
    {
      "inputs": [
        {
          "internalType": "uint256",
          "name": "id",
          "type": "uint256"
        }
      ],
      "name": "burn",
      "outputs": [],
      "stateMutability": "nonpayable",
      "type": "function"
    },
    {
      "inputs": [
        {
          "internalType": "uint256",
          "name": "id",
          "type": "uint256"
        },
        {
          "internalType": "uint256",
          "name": "rootsId",
          "type": "uint256"
        }
      ],
      "name": "claimEditionAsRootsHolder",
      "outputs": [],
      "stateMutability": "nonpayable",
      "type": "function"
    },
    {
      "inputs": [
        {
          "internalType": "uint256",
          "name": "id",
          "type": "uint256"
        }
      ],
      "name": "getEditionPhotoBase64SVG",
      "outputs": [
        {
          "internalType": "string",
          "name": "",
          "type": "string"
        }
      ],
      "stateMutability": "view",
      "type": "function"
    },
    {
      "inputs": [
        {
          "internalType": "uint256",
          "name": "id",
          "type": "uint256"
        }
      ],
      "name": "getEditionPhotoSVG",
      "outputs": [
        {
          "internalType": "string",
          "name": "",
          "type": "string"
        }
      ],
      "stateMutability": "view",
      "type": "function"
    },
    {
      "inputs": [
        {
          "internalType": "uint256",
          "name": "id",
          "type": "uint256"
        }
      ],
      "name": "getEditionTokenId",
      "outputs": [
        {
          "internalType": "uint256",
          "name": "",
          "type": "uint256"
        }
      ],
      "stateMutability": "pure",
      "type": "function"
    },
    {
      "inputs": [
        {
          "internalType": "uint256",
          "name": "id",
          "type": "uint256"
        }
      ],
      "name": "getEditionsSold",
      "outputs": [
        {
          "internalType": "uint256",
          "name": "",
          "type": "uint256"
        }
      ],
      "stateMutability": "view",
      "type": "function"
    },
    {
      "inputs": [],
      "name": "getMaxEditions",
      "outputs": [
        {
          "internalType": "uint256",
          "name": "",
          "type": "uint256"
        }
      ],
      "stateMutability": "pure",
      "type": "function"
    },
    {
      "inputs": [
        {
          "internalType": "uint256",
          "name": "id",
          "type": "uint256"
        }
      ],
      "name": "getOriginalSold",
      "outputs": [
        {
          "internalType": "bool",
          "name": "",
          "type": "bool"
        }
      ],
      "stateMutability": "view",
      "type": "function"
    },
    {
      "inputs": [
        {
          "internalType": "uint256",
          "name": "editionId",
          "type": "uint256"
        }
      ],
      "name": "getOriginalTokenId",
      "outputs": [
        {
          "internalType": "uint256",
          "name": "",
          "type": "uint256"
        }
      ],
      "stateMutability": "pure",
      "type": "function"
    },
    {
      "inputs": [],
      "name": "getOriginalsBaseURI",
      "outputs": [
        {
          "internalType": "string",
          "name": "",
          "type": "string"
        }
      ],
      "stateMutability": "view",
      "type": "function"
    },
    {
      "inputs": [
        {
          "internalType": "uint256",
          "name": "id",
          "type": "uint256"
        }
      ],
      "name": "getRawEditionPhotoData",
      "outputs": [
        {
          "internalType": "bytes",
          "name": "",
          "type": "bytes"
        }
      ],
      "stateMutability": "view",
      "type": "function"
    },
    {
      "inputs": [
        {
          "internalType": "uint256",
          "name": "rootsId",
          "type": "uint256"
        }
      ],
      "name": "hasEditionBeenClaimedForRootsPhoto",
      "outputs": [
        {
          "internalType": "bool",
          "name": "",
          "type": "bool"
        }
      ],
      "stateMutability": "view",
      "type": "function"
    },
    {
      "inputs": [
        {
          "internalType": "address",
          "name": "",
          "type": "address"
        },
        {
          "internalType": "address",
          "name": "",
          "type": "address"
        }
      ],
      "name": "isApprovedForAll",
      "outputs": [
        {
          "internalType": "bool",
          "name": "",
          "type": "bool"
        }
      ],
      "stateMutability": "view",
      "type": "function"
    },
    {
      "inputs": [
        {
          "internalType": "uint256",
          "name": "id",
          "type": "uint256"
        }
      ],
      "name": "isEdition",
      "outputs": [
        {
          "internalType": "bool",
          "name": "",
          "type": "bool"
        }
      ],
      "stateMutability": "pure",
      "type": "function"
    },
    {
      "inputs": [],
      "name": "metadata",
      "outputs": [
        {
          "internalType": "contract IICE64Renderer",
          "name": "",
          "type": "address"
        }
      ],
      "stateMutability": "view",
      "type": "function"
    },
    {
      "inputs": [],
      "name": "owner",
      "outputs": [
        {
          "internalType": "address",
          "name": "",
          "type": "address"
        }
      ],
      "stateMutability": "view",
      "type": "function"
    },
    {
      "inputs": [],
      "name": "priceEdition",
      "outputs": [
        {
          "internalType": "uint256",
          "name": "",
          "type": "uint256"
        }
      ],
      "stateMutability": "view",
      "type": "function"
    },
    {
      "inputs": [],
      "name": "priceOriginal",
      "outputs": [
        {
          "internalType": "uint256",
          "name": "",
          "type": "uint256"
        }
      ],
      "stateMutability": "view",
      "type": "function"
    },
    {
      "inputs": [
        {
          "internalType": "uint256",
          "name": "id",
          "type": "uint256"
        }
      ],
      "name": "purchaseEdition",
      "outputs": [],
      "stateMutability": "payable",
      "type": "function"
    },
    {
      "inputs": [
        {
          "internalType": "uint256",
          "name": "id",
          "type": "uint256"
        }
      ],
      "name": "purchaseOriginal",
      "outputs": [],
      "stateMutability": "payable",
      "type": "function"
    },
    {
      "inputs": [],
      "name": "roots",
      "outputs": [
        {
          "internalType": "contract IERC721",
          "name": "",
          "type": "address"
        }
      ],
      "stateMutability": "view",
      "type": "function"
    },
    {
      "inputs": [
        {
          "internalType": "uint256",
          "name": "",
          "type": "uint256"
        },
        {
          "internalType": "uint256",
          "name": "salePrice",
          "type": "uint256"
        }
      ],
      "name": "royaltyInfo",
      "outputs": [
        {
          "internalType": "address",
          "name": "receiver",
          "type": "address"
        },
        {
          "internalType": "uint256",
          "name": "royaltyAmount",
          "type": "uint256"
        }
      ],
      "stateMutability": "view",
      "type": "function"
    },
    {
      "inputs": [
        {
          "internalType": "address",
          "name": "from",
          "type": "address"
        },
        {
          "internalType": "address",
          "name": "to",
          "type": "address"
        },
        {
          "internalType": "uint256[]",
          "name": "ids",
          "type": "uint256[]"
        },
        {
          "internalType": "uint256[]",
          "name": "amounts",
          "type": "uint256[]"
        },
        {
          "internalType": "bytes",
          "name": "data",
          "type": "bytes"
        }
      ],
      "name": "safeBatchTransferFrom",
      "outputs": [],
      "stateMutability": "nonpayable",
      "type": "function"
    },
    {
      "inputs": [
        {
          "internalType": "address",
          "name": "from",
          "type": "address"
        },
        {
          "internalType": "address",
          "name": "to",
          "type": "address"
        },
        {
          "internalType": "uint256",
          "name": "id",
          "type": "uint256"
        },
        {
          "internalType": "uint256",
          "name": "amount",
          "type": "uint256"
        },
        {
          "internalType": "bytes",
          "name": "data",
          "type": "bytes"
        }
      ],
      "name": "safeTransferFrom",
      "outputs": [],
      "stateMutability": "nonpayable",
      "type": "function"
    },
    {
      "inputs": [
        {
          "internalType": "address",
          "name": "operator",
          "type": "address"
        },
        {
          "internalType": "bool",
          "name": "approved",
          "type": "bool"
        }
      ],
      "name": "setApprovalForAll",
      "outputs": [],
      "stateMutability": "nonpayable",
      "type": "function"
    },
    {
      "inputs": [
        {
          "internalType": "contract IICE64Renderer",
          "name": "metadataAddr",
          "type": "address"
        }
      ],
      "name": "setMetadata",
      "outputs": [],
      "stateMutability": "nonpayable",
      "type": "function"
    },
    {
      "inputs": [
        {
          "internalType": "string",
          "name": "baseURI",
          "type": "string"
        }
      ],
      "name": "setOriginalsBaseURI",
      "outputs": [],
      "stateMutability": "nonpayable",
      "type": "function"
    },
    {
      "inputs": [
        {
          "internalType": "address",
          "name": "newOwner",
          "type": "address"
        }
      ],
      "name": "setOwner",
      "outputs": [],
      "stateMutability": "nonpayable",
      "type": "function"
    },
    {
      "inputs": [
        {
          "internalType": "address",
          "name": "receiver",
          "type": "address"
        },
        {
          "internalType": "uint256",
          "name": "amount",
          "type": "uint256"
        }
      ],
      "name": "setRoyaltyInfo",
      "outputs": [],
      "stateMutability": "nonpayable",
      "type": "function"
    },
    {
      "inputs": [
        {
          "internalType": "uint256",
          "name": "chunkId",
          "type": "uint256"
        },
        {
          "internalType": "bytes",
          "name": "data",
          "type": "bytes"
        }
      ],
      "name": "storeChunkedEditionPhotoData",
      "outputs": [],
      "stateMutability": "nonpayable",
      "type": "function"
    },
    {
      "inputs": [
        {
          "internalType": "bytes4",
          "name": "interfaceId",
          "type": "bytes4"
        }
      ],
      "name": "supportsInterface",
      "outputs": [
        {
          "internalType": "bool",
          "name": "",
          "type": "bool"
        }
      ],
      "stateMutability": "view",
      "type": "function"
    },
    {
      "inputs": [
        {
          "internalType": "uint256",
          "name": "id",
          "type": "uint256"
        }
      ],
      "name": "uri",
      "outputs": [
        {
          "internalType": "string",
          "name": "",
          "type": "string"
        }
      ],
      "stateMutability": "view",
      "type": "function"
    },
    {
      "inputs": [],
      "name": "withdrawBalance",
      "outputs": [],
      "stateMutability": "nonpayable",
      "type": "function"
    },
    {
      "inputs": [
        {
          "internalType": "contract IERC20",
          "name": "tokenAddress",
          "type": "address"
        }
      ],
      "name": "withdrawToken",
      "outputs": [],
      "stateMutability": "nonpayable",
      "type": "function"
    }
  ],
  "bytecode": "0x60806040523480156200001157600080fd5b5060405162002dcb38038062002dcb83398101604081905262000034916200021b565b600280546001600160a01b0319166001600160a01b0386169081179091556040518591906000907f8292fce18fa69edf4db7b94ea2e58241df0ae57f97e0a6c9b29067028bf92d76908290a35081516200009690600890602085019062000134565b50600480546001600160a01b0319166001600160a01b038316179055600554620000c490600060016200010e565b6005555050604080518082019091526001600160a01b0391909116808252610280602090920191909152600780546001600160b81b031916909117600560a71b1790555062000374565b600081156200012457506001821b83176200012d565b506001821b1983165b9392505050565b828054620001429062000338565b90600052602060002090601f016020900481019282620001665760008555620001b1565b82601f106200018157805160ff1916838001178555620001b1565b82800160010185558215620001b1579182015b82811115620001b157825182559160200191906001019062000194565b50620001bf929150620001c3565b5090565b5b80821115620001bf5760008155600101620001c4565b6001600160a01b0381168114620001f057600080fd5b50565b634e487b7160e01b600052604160045260246000fd5b80516200021681620001da565b919050565b600080600080608085870312156200023257600080fd5b84516200023f81620001da565b809450506020808601516200025481620001da565b60408701519094506001600160401b03808211156200027257600080fd5b818801915088601f8301126200028757600080fd5b8151818111156200029c576200029c620001f3565b604051601f8201601f19908116603f01168101908382118183101715620002c757620002c7620001f3565b816040528281528b86848701011115620002e057600080fd5b600093505b82841015620003045784840186015181850187015292850192620002e5565b82841115620003165760008684830101525b8097505050505050506200032d6060860162000209565b905092959194509250565b600181811c908216806200034d57607f821691505b6020821081036200036e57634e487b7160e01b600052602260045260246000fd5b50919050565b612a4780620003846000396000f3fe60806040526004361061020d5760003560e01c80637b4dfbf911610118578063afd77cb6116100a0578063e2e784d51161006f578063e2e784d514610649578063e985e9c514610669578063ee68e061146106a4578063f242432a146106c4578063f3cb8385146106e457600080fd5b8063afd77cb6146105c9578063b855b7cb146105e9578063dafa84f914610609578063df7624631461062957600080fd5b80638da5cb5b116100e75780638da5cb5b14610535578063955ce6ca146105555780639effd22f14610569578063a22cb46514610589578063ad508634146105a957600080fd5b80637b4dfbf9146104c057806388899eaa146104e057806389476069146104fa5780638d3451501461051a57600080fd5b8063392f37e91161019b57806358e83e5b1161016a57806358e83e5b146104185780635fd8c7101461043857806366516cdf1461044d5780636664938b1461046d57806369dabb7c1461049f57600080fd5b8063392f37e914610373578063393fe1cd146103ab57806342966c68146103cb5780634e1273f4146103eb57600080fd5b806313af4035116101e257806313af4035146102cc578063283ea676146102ec57806328d703ef146102ff5780632a55205a146103145780632eb2c2d61461035357600080fd5b80629a19ba14610212578062fdd58e1461022757806301ffc9a71461026f5780630e89341c1461029f575b600080fd5b61022561022036600461205f565b610704565b005b34801561023357600080fd5b5061025c61024236600461208d565b600060208181529281526040808220909352908152205481565b6040519081526020015b60405180910390f35b34801561027b57600080fd5b5061028f61028a3660046120cf565b610832565b6040519015158152602001610266565b3480156102ab57600080fd5b506102bf6102ba36600461205f565b61085d565b6040516102669190612144565b3480156102d857600080fd5b506102256102e7366004612157565b6108fa565b6102256102fa36600461205f565b610979565b34801561030b57600080fd5b506102bf6109da565b34801561032057600080fd5b5061033461032f366004612174565b610a6c565b604080516001600160a01b039093168352602083019190915201610266565b34801561035f57600080fd5b5061022561036e366004612224565b610aaa565b34801561037f57600080fd5b50600354610393906001600160a01b031681565b6040516001600160a01b039091168152602001610266565b3480156103b757600080fd5b50600454610393906001600160a01b031681565b3480156103d757600080fd5b506102256103e636600461205f565b610d4d565b3480156103f757600080fd5b5061040b6104063660046122e3565b610d94565b604051610266919061234f565b34801561042457600080fd5b5061025c61043336600461205f565b610ec9565b34801561044457600080fd5b50610225610ed6565b34801561045957600080fd5b506102bf61046836600461205f565b610f4a565b34801561047957600080fd5b5061028f61048836600461205f565b60009081526006602052604090205460ff16151590565b3480156104ab57600080fd5b5061028f6104ba36600461205f565b60641090565b3480156104cc57600080fd5b506102bf6104db36600461205f565b610f8a565b3480156104ec57600080fd5b5061025c65b5e620f4800081565b34801561050657600080fd5b50610225610515366004612157565b6110e1565b34801561052657600080fd5b5061025c660b5e620f48000081565b34801561054157600080fd5b50600254610393906001600160a01b031681565b34801561056157600080fd5b50602061025c565b34801561057557600080fd5b5061025c61058436600461205f565b6111cb565b34801561059557600080fd5b506102256105a43660046123a1565b6111d8565b3480156105b557600080fd5b506102256105c4366004612449565b611244565b3480156105d557600080fd5b506102256105e4366004612174565b611281565b3480156105f557600080fd5b506102bf61060436600461205f565b61138a565b34801561061557600080fd5b5061025c61062436600461205f565b61146a565b34801561063557600080fd5b5061028f61064436600461205f565b611497565b34801561065557600080fd5b5061022561066436600461208d565b6114aa565b34801561067557600080fd5b5061028f6106843660046124c9565b600160209081526000928352604080842090915290825290205460ff1681565b3480156106b057600080fd5b506102256106bf3660046124f7565b61151e565b3480156106d057600080fd5b506102256106df366004612543565b6115e3565b3480156106f057600080fd5b506102256106ff366004612157565b6117dd565b808015806107125750601081115b156107305760405163c1ab6dc160e01b815260040160405180910390fd5b660b5e620f48000080341461075857604051638b6ebb4d60e01b815260040160405180910390fd5b60008381526006602052604090205460ff168015610789576040516352df9fe560e01b815260040160405180910390fd5b600061079485610ec9565b33600090815260208181526040808320848452909152902054909150156107e5576107d13386600160405180602001604052806000815250611829565b6107e085600160006001611971565b61082b565b6108013386600160405180602001604052806000815250611829565b61081d3382600160405180602001604052806000815250611829565b61082b856001806001611971565b5050505050565b600063152a902d60e11b6001600160e01b0319831614806108575750610857826119c1565b92915050565b6003546060906001600160a01b031661088957604051635e87bc0f60e11b815260040160405180910390fd5b60035460405163c87b56dd60e01b8152600481018490526001600160a01b039091169063c87b56dd90602401600060405180830381865afa1580156108d2573d6000803e3d6000fd5b505050506040513d6000823e601f3d908101601f1916820160405261085791908101906125ef565b6002546001600160a01b0316331461092d5760405162461bcd60e51b815260040161092490612638565b60405180910390fd5b600280546001600160a01b0319166001600160a01b03831690811790915560405133907f8292fce18fa69edf4db7b94ea2e58241df0ae57f97e0a6c9b29067028bf92d7690600090a350565b808015806109875750601081115b156109a55760405163c1ab6dc160e01b815260040160405180910390fd5b65b5e620f480008034146109cc57604051638b6ebb4d60e01b815260040160405180910390fd5b6109d583611a0f565b505050565b6060600880546109e99061265e565b80601f0160208091040260200160405190810160405280929190818152602001828054610a159061265e565b8015610a625780601f10610a3757610100808354040283529160200191610a62565b820191906000526020600020905b815481529060010190602001808311610a4557829003601f168201915b5050505050905090565b6007546001600160a01b0381169060009061271090610a9790600160a01b900462ffffff16856126a8565b610aa191906126dd565b90509250929050565b848314610aeb5760405162461bcd60e51b815260206004820152600f60248201526e0988a9c8ea890be9a92a69a82a8869608b1b6044820152606401610924565b336001600160a01b0389161480610b2557506001600160a01b038816600090815260016020908152604080832033845290915290205460ff165b610b625760405162461bcd60e51b815260206004820152600e60248201526d1393d517d055551213d49256915160921b6044820152606401610924565b60008060005b87811015610c1d57888882818110610b8257610b826126f1565b905060200201359250868682818110610b9d57610b9d6126f1565b6001600160a01b038e1660009081526020818152604080832089845282528220805493909102949094013595508593925090610bda908490612707565b90915550506001600160a01b038a1660009081526020818152604080832086845290915281208054849290610c1090849061271e565b9091555050600101610b68565b50886001600160a01b03168a6001600160a01b0316336001600160a01b03167f4a39dc06d4c0dbc64b70af90fd698a233a518aa5d07e595d983b8c0526c8f7fb8b8b8b8b604051610c71949392919061276c565b60405180910390a46001600160a01b0389163b15610d185760405163bc197c8160e01b808252906001600160a01b038b169063bc197c8190610cc59033908f908e908e908e908e908e908e906004016127c7565b6020604051808303816000875af1158015610ce4573d6000803e3d6000fd5b505050506040513d601f19601f82011682018060405250810190610d08919061282b565b6001600160e01b03191614610d25565b6001600160a01b03891615155b610d415760405162461bcd60e51b815260040161092490612848565b50505050505050505050565b336000908152602081815260408083208484529091528120549003610d85576040516330cd747160e01b815260040160405180910390fd5b610d9133826001611af8565b50565b6060838214610dd75760405162461bcd60e51b815260206004820152600f60248201526e0988a9c8ea890be9a92a69a82a8869608b1b6044820152606401610924565b8367ffffffffffffffff811115610df057610df06123da565b604051908082528060200260200182016040528015610e19578160200160208202803683370190505b50905060005b84811015610ec057600080878784818110610e3c57610e3c6126f1565b9050602002016020810190610e519190612157565b6001600160a01b03166001600160a01b031681526020019081526020016000206000858584818110610e8557610e856126f1565b90506020020135815260200190815260200160002054828281518110610ead57610ead6126f1565b6020908102919091010152600101610e1f565b50949350505050565b600061085760648361271e565b6002546040516000916001600160a01b03169047908381818185875af1925050503d8060008114610f23576040519150601f19603f3d011682016040523d82523d6000602084013e610f28565b606091505b5050905080610d91576040516307a4ced160e51b815260040160405180910390fd5b606081801580610f5a5750601081115b15610f785760405163c1ab6dc160e01b815260040160405180910390fd5b610f8183611b7c565b91505b50919050565b606081801580610f9a5750601081115b15610fb85760405163c1ab6dc160e01b815260040160405180910390fd5b6003546001600160a01b0316610fe157604051635e87bc0f60e11b815260040160405180910390fd5b6000610fec84611b7c565b600354604051632c6f767760e21b81529192506000916001600160a01b039091169063b1bdd9dc90611022908590600401612144565b600060405180830381865afa15801561103f573d6000803e3d6000fd5b505050506040513d6000823e601f3d908101601f1916820160405261106791908101906125ef565b604080516208006081018252620800408152600060209182019081528251808401909352601a83527f646174613a696d6167652f7376672b786d6c3b6261736536342c000000000000918301919091529192506110c5908290611bfe565b6110d86110d183611c83565b8290611bfe565b95945050505050565b6002546040516370a0823160e01b81523060048201526001600160a01b038381169263a9059cbb9291169083906370a0823190602401602060405180830381865afa158015611134573d6000803e3d6000fd5b505050506040513d601f19601f820116820180604052508101906111589190612872565b6040516001600160e01b031960e085901b1681526001600160a01b03909216600483015260248201526044016020604051808303816000875af11580156111a3573d6000803e3d6000fd5b505050506040513d601f19601f820116820180604052508101906111c7919061288b565b5050565b6000610857606483612707565b3360008181526001602090815260408083206001600160a01b03871680855290835292819020805460ff191686151590811790915590519081529192917f17307eab39ab6107e8899845ad3d59bd9653f200f220920489ca2b5937696c31910160405180910390a35050565b6002546001600160a01b0316331461126e5760405162461bcd60e51b815260040161092490612638565b80516111c7906008906020840190611fc6565b8180158061128f5750601081115b156112ad5760405163c1ab6dc160e01b815260040160405180910390fd5b600480546040516331a9108f60e11b815291820184905233916001600160a01b0390911690636352211e90602401602060405180830381865afa1580156112f8573d6000803e3d6000fd5b505050506040513d601f19601f8201168201806040525081019061131c91906128a8565b6001600160a01b0316146113435760405163b24444db60e01b815260040160405180910390fd5b600554821c60019081160361136b57604051632a06c23360e21b815260040160405180910390fd5b61137483611a0f565b611382600554836001611ded565b600555505050565b60608180158061139a5750601081115b156113b85760405163c1ab6dc160e01b815260040160405180910390fd5b6003546001600160a01b03166113e157604051635e87bc0f60e11b815260040160405180910390fd5b60006113ec84611b7c565b60035460405163301f8a6d60e11b81529192506001600160a01b03169063603f14da9061141d908490600401612144565b600060405180830381865afa15801561143a573d6000803e3d6000fd5b505050506040513d6000823e601f3d908101601f1916820160405261146291908101906125ef565b949350505050565b600081815260066020526040812054819060ff80821691600881901c82169160109190911c161515610ec0565b600554600090821c600190811614610857565b6002546001600160a01b031633146114d45760405162461bcd60e51b815260040161092490612638565b604080518082019091526001600160a01b0390921680835262ffffff909116602090920182905260078054600160a01b9093026001600160b81b0319909316909117919091179055565b6002546001600160a01b031633146115485760405162461bcd60e51b815260040161092490612638565b61155560026111086126a8565b811461157357604051623d2e6360e51b815260040160405180910390fd5b6115b282828080601f016020809104026020016040519081016040528093929190818152602001838380828437600092019190915250611e1192505050565b60009384526009602052604090932080546001600160a01b0319166001600160a01b03909416939093179092555050565b336001600160a01b038716148061161d57506001600160a01b038616600090815260016020908152604080832033845290915290205460ff165b61165a5760405162461bcd60e51b815260206004820152600e60248201526d1393d517d055551213d49256915160921b6044820152606401610924565b6001600160a01b0386166000908152602081815260408083208784529091528120805485929061168b908490612707565b90915550506001600160a01b038516600090815260208181526040808320878452909152812080548592906116c190849061271e565b909155505060408051858152602081018590526001600160a01b03808816929089169133917fc3d58168c5ae7397731d063d5bbf3d657854427343f4c083240f7aacaa2d0f62910160405180910390a46001600160a01b0385163b156117ac5760405163f23a6e6160e01b808252906001600160a01b0387169063f23a6e61906117599033908b908a908a908a908a906004016128c5565b6020604051808303816000875af1158015611778573d6000803e3d6000fd5b505050506040513d601f19601f8201168201806040525081019061179c919061282b565b6001600160e01b031916146117b9565b6001600160a01b03851615155b6117d55760405162461bcd60e51b815260040161092490612848565b505050505050565b6002546001600160a01b031633146118075760405162461bcd60e51b815260040161092490612638565b600380546001600160a01b0319166001600160a01b0392909216919091179055565b6001600160a01b0384166000908152602081815260408083208684529091528120805484929061185a90849061271e565b909155505060408051848152602081018490526001600160a01b0386169160009133917fc3d58168c5ae7397731d063d5bbf3d657854427343f4c083240f7aacaa2d0f62910160405180910390a46001600160a01b0384163b156119425760405163f23a6e6160e01b808252906001600160a01b0386169063f23a6e61906118ef90339060009089908990899060040161290c565b6020604051808303816000875af115801561190e573d6000803e3d6000fd5b505050506040513d601f19601f82011682018060405250810190611932919061282b565b6001600160e01b0319161461194f565b6001600160a01b03841615155b61196b5760405162461bcd60e51b815260040161092490612848565b50505050565b60008481526006602052604090205460ff8082169160081c166119a7611997868461271e565b6119a1868461271e565b85611e70565b600096875260066020526040909620959095555050505050565b60006301ffc9a760e01b6001600160e01b0319831614806119f25750636cdb3d1360e11b6001600160e01b03198316145b806108575750506001600160e01b0319166303a24d0760e21b1490565b6000611a1a82610ec9565b60008381526006602052604081205491925060ff600883901c81169260101c1615159081611a5357611a4e60016020612707565b611a56565b60205b9050808303611a97578115611a7e576040516352df9fe560e01b815260040160405180910390fd5b604051632d97105f60e01b815260040160405180910390fd5b3360009081526020818152604080832087845290915290205415611ace5760405163b7d406bb60e01b815260040160405180910390fd5b611aea3385600160405180602001604052806000815250611829565b61082b856000600185611971565b6001600160a01b03831660009081526020818152604080832085845290915281208054839290611b29908490612707565b909155505060408051838152602081018390526000916001600160a01b0386169133917fc3d58168c5ae7397731d063d5bbf3d657854427343f4c083240f7aacaa2d0f62910160405180910390a4505050565b606060006002611b8d600185612707565b611b9791906126dd565b611ba290600161271e565b905060006002611bb3600186612707565b611bbd9190612946565b90506000611bcd611108836126a8565b6000848152600960205260409020549091506110d8906001600160a01b031682611bf96111088261271e565b611e8e565b601f1982015182518251603f19909201918290611c1b908361271e565b1115611c795760405162461bcd60e51b815260206004820152602760248201527f44796e616d69634275666665723a20417070656e64696e67206f7574206f66206044820152663137bab732399760c91b6064820152608401610924565b61196b8484611eaf565b80516060906000819003611ca7575050604080516020810190915260008152919050565b60006003611cb683600261271e565b611cc091906126dd565b611ccb9060046126a8565b90506000611cda82602061271e565b67ffffffffffffffff811115611cf257611cf26123da565b6040519080825280601f01601f191660200182016040528015611d1c576020820181803683370190505b50905060006040518060600160405280604081526020016129d2604091399050600181016020830160005b86811015611da8576003818a01810151603f601282901c8116860151600c83901c8216870151600684901c831688015192909316870151600891821b60ff94851601821b92841692909201901b91160160e01b835260049092019101611d47565b506003860660018114611dc25760028114611dd357611ddf565b613d3d60f01b600119830152611ddf565b603d60f81b6000198301525b505050918152949350505050565b60008115611e0157506001821b8317611e0a565b506001821b1983165b9392505050565b600080611e3c83604051602001611e28919061295a565b604051602081830303815290604052611ee5565b90508051602082016000f091506001600160a01b038216610f845760405163046a55db60e11b815260040160405180910390fd5b600882901b831781611e825780611462565b62010000179392505050565b606061146284611e9f85600161271e565b611eaa85600161271e565b611f11565b8051602082019150808201602084510184015b81841015611eda578351815260209384019301611ec2565b505082510190915250565b6060815182604051602001611efb929190612980565b6040516020818303038152906040529050919050565b6060833b6000819003611f34575050604080516020810190915260008152611e0a565b80841115611f52575050604080516020810190915260008152611e0a565b83831015611f845760405163162544fd60e11b8152600481018290526024810185905260448101849052606401610924565b8383038482036000828210611f995782611f9b565b815b60408051603f8301601f19168101909152818152955090508087602087018a3c505050509392505050565b828054611fd29061265e565b90600052602060002090601f016020900481019282611ff4576000855561203a565b82601f1061200d57805160ff191683800117855561203a565b8280016001018555821561203a579182015b8281111561203a57825182559160200191906001019061201f565b5061204692915061204a565b5090565b5b80821115612046576000815560010161204b565b60006020828403121561207157600080fd5b5035919050565b6001600160a01b0381168114610d9157600080fd5b600080604083850312156120a057600080fd5b82356120ab81612078565b946020939093013593505050565b6001600160e01b031981168114610d9157600080fd5b6000602082840312156120e157600080fd5b8135611e0a816120b9565b60005b838110156121075781810151838201526020016120ef565b8381111561196b5750506000910152565b600081518084526121308160208601602086016120ec565b601f01601f19169290920160200192915050565b602081526000611e0a6020830184612118565b60006020828403121561216957600080fd5b8135611e0a81612078565b6000806040838503121561218757600080fd5b50508035926020909101359150565b60008083601f8401126121a857600080fd5b50813567ffffffffffffffff8111156121c057600080fd5b6020830191508360208260051b85010111156121db57600080fd5b9250929050565b60008083601f8401126121f457600080fd5b50813567ffffffffffffffff81111561220c57600080fd5b6020830191508360208285010111156121db57600080fd5b60008060008060008060008060a0898b03121561224057600080fd5b883561224b81612078565b9750602089013561225b81612078565b9650604089013567ffffffffffffffff8082111561227857600080fd5b6122848c838d01612196565b909850965060608b013591508082111561229d57600080fd5b6122a98c838d01612196565b909650945060808b01359150808211156122c257600080fd5b506122cf8b828c016121e2565b999c989b5096995094979396929594505050565b600080600080604085870312156122f957600080fd5b843567ffffffffffffffff8082111561231157600080fd5b61231d88838901612196565b9096509450602087013591508082111561233657600080fd5b5061234387828801612196565b95989497509550505050565b6020808252825182820181905260009190848201906040850190845b818110156123875783518352928401929184019160010161236b565b50909695505050505050565b8015158114610d9157600080fd5b600080604083850312156123b457600080fd5b82356123bf81612078565b915060208301356123cf81612393565b809150509250929050565b634e487b7160e01b600052604160045260246000fd5b604051601f8201601f1916810167ffffffffffffffff81118282101715612419576124196123da565b604052919050565b600067ffffffffffffffff82111561243b5761243b6123da565b50601f01601f191660200190565b60006020828403121561245b57600080fd5b813567ffffffffffffffff81111561247257600080fd5b8201601f8101841361248357600080fd5b803561249661249182612421565b6123f0565b8181528560208385010111156124ab57600080fd5b81602084016020830137600091810160200191909152949350505050565b600080604083850312156124dc57600080fd5b82356124e781612078565b915060208301356123cf81612078565b60008060006040848603121561250c57600080fd5b83359250602084013567ffffffffffffffff81111561252a57600080fd5b612536868287016121e2565b9497909650939450505050565b60008060008060008060a0878903121561255c57600080fd5b863561256781612078565b9550602087013561257781612078565b94506040870135935060608701359250608087013567ffffffffffffffff8111156125a157600080fd5b6125ad89828a016121e2565b979a9699509497509295939492505050565b60006125cd61249184612421565b90508281528383830111156125e157600080fd5b611e0a8360208301846120ec565b60006020828403121561260157600080fd5b815167ffffffffffffffff81111561261857600080fd5b8201601f8101841361262957600080fd5b611462848251602084016125bf565b6020808252600c908201526b15539055551213d49256915160a21b604082015260600190565b600181811c9082168061267257607f821691505b602082108103610f8457634e487b7160e01b600052602260045260246000fd5b634e487b7160e01b600052601160045260246000fd5b60008160001904831182151516156126c2576126c2612692565b500290565b634e487b7160e01b600052601260045260246000fd5b6000826126ec576126ec6126c7565b500490565b634e487b7160e01b600052603260045260246000fd5b60008282101561271957612719612692565b500390565b6000821982111561273157612731612692565b500190565b81835260006001600160fb1b0383111561274f57600080fd5b8260051b8083602087013760009401602001938452509192915050565b604081526000612780604083018688612736565b8281036020840152612793818587612736565b979650505050505050565b81835281816020850137506000828201602090810191909152601f909101601f19169091010190565b6001600160a01b0389811682528816602082015260a0604082018190526000906127f4908301888a612736565b8281036060840152612807818789612736565b9050828103608084015261281c81858761279e565b9b9a5050505050505050505050565b60006020828403121561283d57600080fd5b8151611e0a816120b9565b60208082526010908201526f155394d0519157d49150d2541251539560821b604082015260600190565b60006020828403121561288457600080fd5b5051919050565b60006020828403121561289d57600080fd5b8151611e0a81612393565b6000602082840312156128ba57600080fd5b8151611e0a81612078565b6001600160a01b03878116825286166020820152604081018590526060810184905260a060808201819052600090612900908301848661279e565b98975050505050505050565b6001600160a01b03868116825285166020820152604081018490526060810183905260a06080820181905260009061279390830184612118565b600082612955576129556126c7565b500690565b60008152600082516129738160018501602087016120ec565b9190910160010192915050565b606360f81b815260e083901b6001600160e01b03191660018201526880600e6000396000f360b81b600582015281516000906129c381600e8501602087016120ec565b91909101600e01939250505056fe4142434445464748494a4b4c4d4e4f505152535455565758595a6162636465666768696a6b6c6d6e6f707172737475767778797a303132333435363738392b2fa2646970667358221220ef2b9e97e5eb939c3213923e70fdcc6e52c70a3817b802ced447af56b8a8057a64736f6c634300080e0033",
  "linkReferences": {},
  "deployedLinkReferences": {}
}